{
  "contractName": "Demo",
  "abi": [
    {
      "inputs": [],
      "name": "num",
      "outputs": [
        {
          "internalType": "uint256",
          "name": "",
          "type": "uint256"
        }
      ],
      "stateMutability": "view",
      "type": "function"
    },
    {
      "inputs": [],
      "name": "setter",
      "outputs": [],
      "stateMutability": "nonpayable",
      "type": "function"
    }
  ],
  "bytecode": "0x6080604052601960005534801561001557600080fd5b5060cf806100246000396000f3fe6080604052348015600f57600080fd5b506004361060325760003560e01c80633f3108f71460375780634e70b1dc14603f575b600080fd5b603d6059565b005b60456063565b604051605091906080565b60405180910390f35b6064600081905550565b60005481565b6000819050919050565b607a816069565b82525050565b6000602082019050609360008301846073565b9291505056fea264697066735822122000f611e567ffd0d3f8ef3c0bd3c85ee10cb01d827b4e1e8f1924c94dd8d7b8e764736f6c63430008110033",
  "immutableReferences": {},
  "source": "// SPDX-License-Identifier: MIT\r\npragma solidity >=0.5.0 <0.9.0;\r\n\r\ncontract Demo{\r\n    uint public num=25;\r\n\r\n    function setter() public {\r\n        num = 100;\r\n    }\r\n\r\n\r\n\r\n}",
  "sourcePath": "C:\\Users\\Shashank\\Desktop\\truffleTest\\contracts\\Demo.sol",
  "compiler": {
    "name": "solc",
    "version": "0.8.17+commit.8df45f5f.Emscripten.clang"
  },
  "schemaVersion": "3.4.11",
  "updatedAt": "2022-12-03T04:20:18.122Z",
  "devdoc": {
    "kind": "dev",
    "methods": {},
    "version": 1
  },
  "userdoc": {
    "kind": "user",
    "methods": {},
    "version": 1
  }
}